:020000040800F2
:1000000038040020E50D0008D10D0008D30D0008CC
:10001000D50D0008D70D0008D90D0008000000001C
:10002000000000000000000000000000DB0D0008E0
:10003000DD0D000800000000DF0D0008E10D0008E4
:10004000010E0008050E0008090E00080D0E00083C
:10005000110E0008150E0008190E00081D0E0008EC
:10006000210E0008250E0008290E00082D0E00089C
:10007000310E0008350E0008390E00083D0E00084C
:10008000410E0008450E0008490E00084D0E0008FC
:10009000510E0008550E0008590E00085D0E0008AC
:1000A000610E0008650E0008690E00086D0E00085C
:1000B000710E0008750E0008790E00087D0E00080C
:1000C000810E0008850E0008890E00088D0E0008BC
:1000D000910E0008950E0008990E00089D0E00086C
:1000E000A10E0008A50E0008A90E0008AD0E00081C
:1000F000B10E00080000000000000000B50E00086E
:100100000000000000000000B90E0008BD0E00084D
:10011000C10E0008C50E0008C90E0008000000004E
:10012000CD0E00082DE9F047044641F289382078C9
:10013000DFF8B855C00714D5A86800F00C000828EF
:1001400007D0A86800F00C000C2864D1A868C00390
:1001500061D52868C0F3404000281CBF60680128B2
:1001600034D12078DFF8886580071BD5A86800F0B7
:100170000C00042807D0A86800F00C000C287AD1E5
:10018000A868C00377D42868C0F3400000281CBFCB
:10019000E06801281AD16868216920F4F85040EA23
:1001A000012068602078C00619D56868216A20F4AB
:1001B000604008436860A86810F00C0F7DD1286883
:1001C000C0F3402000281CBFA069012840F03E81F8
:1001D0006868E1690002000A40EA0160686020780E
:1001E000DFF81075000740F19A806069002800F080
:1001F00087800120386000F0C9FA8146686BC0F33F
:100200004000002840F08B8000F0C0FAA0EB09000D
:100210006528F3D318E10020A87000F0B7FA06466D
:100220002868C0F3404028B100F0B0FA801B404578
:10023000F6D309E16068A870606868B100F0A6FABA
:1002400006462868C0F3404000288AD100F09EFA94
:10025000801B4045F5D3F7E000F098FA0646286881
:10026000C0F3404000283FF47CAF00F08FFA801BC1
:100270004045F4D3E8E0E06878B10120306000F058
:1002800085FA07462868C0F34000002883D100F0B3
:100290007DFAC01B6528F5D3D6E0306000F076FA11
:1002A00007462868C0F3400000283FF47BAF00F009
:1002B0006DFAC01B6528F4D3C6E0A06980B10120A7
:1002C000306200F063FA07462868C0F34020002837
:1002D0007FF47EAF00F05AFAC01B6528F4D3B3E078
:1002E000306200F053FA07462868C0F34020002827
:1002F0003FF475AF00F04AFAC01B6528F4D3A3E0C1
:10030000386000F043FA8146686BC0F3400030B1BA
:1003100000F03CFAA0EB09006528F5D394E02078C2
:10032000400756D5686ADFF8D0A340F08050686275
:10033000DAF8000040F48070CAF8000000F026FAF5
:100340008146DAF80000C00506D400F01FFAA0EBE1
:1003500009006528F5D377E000203862B86200F024
:1003600015FA8146686BC0F3402030B100F00EFAF8
:10037000A0EB09004045F5D366E0A06808B93862F3
:1003800009E0012804D10020B8620120386203E0AE
:10039000002038620120B862A06801280CD100F06A
:1003A000F5F90746686BC0F3402090B900F0EEF90C
:1003B000C01B4045F6D347E000F0E8F90746686BFC
:1003C000C0F3402028B100F0E1F9C01B4045F6D34E
:1003D0003AE0606A00283BD0A96801F00C010C29C2
:1003E00034D0022824D100F036F807462868C0F33C
:1003F000406028B100F0CAF9C01B6528F6D323E09D
:10040000A868A16A20F47D000843E16A0843216BD3
:100410000843A860012000F01FF804462868C0F3D4
:100420004060A8B900F0B2F9001B6528F6D30BE0D4
:1004300000F011F804462868C0F3406040B100F0B5
:10044000A5F9001B6528F6D3032002E0012000E097
:100450000020BDE8F0870020306600F097B92DE954
:10046000F843DFF89852DFF88462044628680F46A4
:1004700000F0010041F28938B84269D2012F03D15E
:10048000286840F0040028602868400847EA4000D7
:100490002860286800F00100B8421FD1207880074A
:1004A00005D5B068A16820F0F0000843B06020785E
:1004B000C00740F1BD806068022803D13168C1F3F4
:1004C00040410AE0032803D13168C1F3406104E0F0
:1004D0003168012803D1C1F3400121B9A6E0C1F37D
:1004E00040210029FAD000F0BCF8074660680228D5
:1004F0000AD1B06800F00C00082822D000F046F9BC
:10050000C01B4045F5D37FE003280AD1B06800F056
:100510000C000C2815D000F039F9C01B4045F5D36C
:1005200072E001280AD1B06800F00C00042808D05D
:1005300000F02CF9C01B4045F5D365E0B06810F021
:100540000C0F75D000F022F9C01B4045F6D35BE0DC
:100550002078800705D5B068A16820F0F000084336
:10056000B0602078C00751D56068022803D1316897
:10057000C1F340410AE0032803D13168C1F340616F
:1005800004E03168012803D1C1F3400121B94DE0F5
:10059000C1F34021002949D000F063F8814660682A
:1005A00002280BD1B06800F00C0008282ED000F013
:1005B000EDF8A0EB09004045F4D325E003280BD16A
:1005C000B06800F00C000C2820D000F0DFF8A0EBA1
:1005D00009004045F4D317E001280BD1B06800F0C2
:1005E0000C00042812D000F0D1F8A0EB090040451F
:1005F000F4D309E0B06810F00C0F07D000F0C6F893
:10060000A0EB09004045F5D3032028E0012F03D1DA
:10061000286840F0040028602868400847EA400045
:100620002860286800F00100B84201D0012016E0DF
:100630002078400705D5B068E16820F4E060084301
:10064000B0602078000706D5B068216920F46050BA
:1006500040EAC100B0600F2000F081F80020BDE842
:10066000F283B168890840EA8100B06000F08EB87A
:1006700030B5244924484A68244B02F00C04042C69
:1006800023D0082C02D00C2C02D015E0184630BD27
:10069000C2F383440FF29005645D0FF28805C2F344
:1006A0008152525D4968B4FBF2F2C90302D503FBE3
:1006B00002F030BD504330BD0868400B00F0070029
:1006C0000121401C01FA00F0C00330BD80B5FFF7E6
:1006D000CFFF0B4A0FF23C0312680D49C2F303121D
:1006E000D25CD0400860086802BD000000380240BB
:1006F000000047428006474200700040003C024034
:1007000008380240043802400024F40000127A0045
:100710001C00002000000000010203040102030489
:100720000607080901020304030406080C10182038
:100730003000000080B51D48016841F004010160EF
:10074000016841F002010160032000F045F80F202C
:1007500000F005F800F002F8002002BD704710B567
:100760000446FFF7B3FF4FF47A71B0FBF1F000F0ED
:100770006BF8002221464FF0FF3000F03AF80020DD
:1007800010BD0B480168491C0160704708480068AB
:10079000704711B581B0FFF7F9FF0446FFF7F6FF88
:1007A0000199001B8842F9D313BD0000003C0240B0
:1007B0002C0000202E480068C0F302207047090179
:1007C000002806D500F00F002A4A801800F8041C03
:1007D0007047294A8154704725490A684FF6FF033C
:1007E0001A4000F0070042EA0020244A1043086043
:1007F000704770B504460E461546FFF7DBFF00F064
:100800000700C0F10701052928BF0421021D072A9E
:1008100034BF0020C01E012202FA01F1491E3140FE
:10082000814002FA00F0401E284001432046BDE806
:100830007040C4E7012100F01F029140104AFFE719
:10084000400942F82010704710B5401EB0F1807F7B
:1008500001D3012010BD0B4C60600F214FF0FF3021
:10086000FFF7ADFF0020A06007202060002010BD32
:100870000CED00E018ED00E000E400E00000FA05F7
:1008800000E100E010E000E02DE9F04F0246002317
:10089000654DDFF89891DFF898A14FF00F0801201F
:1008A0000C68984000EA040E864540F0A8804C6829
:1008B000022C18BF122C10D1DC0802EB840403F0C8
:1008C0000706276AB60008FA06FB27EA0B07D1F8E5
:1008D00010B00BFA06F63E4326625C00176891F8EA
:1008E00004B00326A640F6430BF0030B37400BFA87
:1008F00004FB4BEA070717604F68012F18BF022F50
:1009000003D0112F18BF122F11D19768D1F80CB056
:1009100037400BFA04FB4BEA07079760576827EA52
:1009200000004F68C7F300179F4038435060D068FD
:1009300030408E6806FA04F42043D0604868C00056
:100940005DD5DAF8000040F00100CAF8000003F0BD
:100950000304980859F82060A40008FA04F7BE437D
:10096000344FBA4208BF002722D0334FBA4208BFE3
:1009700001271DD0314FBA4208BF022718D0304F8F
:10098000BA4208BF032713D02E4FBA4208BF04272C
:100990000ED02D4FBA4208BF052709D02B4FBA42BF
:1009A00008BF062704D02A4FBA420CBF07270827E2
:1009B00007FA04F4344349F820406FEA0E002C682B
:1009C0004E680440F60348BF4EEA04042C606C688D
:1009D0004E680440B60348BF4EEA04046C60AC683D
:1009E0004E680440F60248BF4EEA0404AC60EC686E
:1009F00020404C68A40248BF4EEA0000E8605B1C3F
:100A0000102BFFF44CAFBDE8F08F0069084018BF11
:100A10000120C0B2704702B9090481617047426980
:100A2000514041617047000000040140080001404E
:100A3000203802400000024000040240000802404A
:100A4000000C024000100240001402400018024056
:100A5000001C024070B504463D483E4E86B0016819
:100A600041F00401016000A90FF2F40030F81450C5
:100A7000009501200190002002900320039056F879
:100A80002400FFF701FF56F8240000222946FFF753
:100A9000C2FF06B070BD0FF2C8012E4B31F8101026
:100AA00053F820000122FFF7B6BF0FF2B401294B23
:100AB00031F8101053F820000022FFF7ACBF0FF2FE
:100AC000A001244A31F8101052F82000FFF7A7BF08
:100AD00010B504461E4886B0026842F0010202606A
:100AE0001D480FF2800251B932F814100091002114
:100AF000019102910221039100F01BF817E00129F6
:100B000015D132F8141000910021029102210391B5
:100B10001249019100F00DF80FF24C00245C002204
:100B20000F2160B2FFF765FE60B2FFF783FE06B0EB
:100B300010BD00A950F82400FFF7A6BE0FF2240153
:100B4000054A31F8101052F82000FFF75EBF000090
:100B50001C38024020000020280000200000111056
:100B60000002000101000000060010B450F8041B50
:100B700081B102681218001D50F8043BDC0744BF25
:100B8000A9F10104E31852F8044B43F8044B091F80
:100B9000F9D1EBE710BC704710B5FFF7CBFD002093
:100BA000FFF758FF0120FFF755FF00F032F8002152
:100BB0000020FFF78DFF364C0120207005E000205B
:100BC000FFF77DFF6420FFF7E4FD0020FFF7B6FF8D
:100BD000012814D1FFF75FFF4FF47A70FFF7D9FDBA
:100BE0000120FFF762FF2078401C2070C0B203286C
:100BF00005D1002020700020FFF757FFE5E720789F
:100C00000228DCD00128F6D10020FFF758FFC820C9
:100C1000D9E700B593B000A8142100F03FF805A86B
:100C2000342100F03BF802200590012008901020AC
:100C3000099002200E9000200F904FF40020109099
:100C40004FF40000119005A8FFF76CFA00B1FEE721
:100C50001048016841F0805101600F48016821F49B
:100C6000C05141F4006101604168C906FCD40F2005
:100C70000090012103200190002002900390049035
:100C800000A8FFF7ECFB00B1FEE713B000BD0000C9
:100C9000300000202438024000700040002200F0A4
:100CA00011B850F8041B61B150F8042BD30744BFAE
:100CB000A9F101039A18002342F8043B091FFAD155
:100CC000EFE7704700B500BF130096469446103911
:100CD00028BFA0E80C50FAD85FEA417C28BF0CC0BE
:100CE00048BF40F8042BC90728BF20F8022B48BF93
:100CF00000F8012B00BD00000D480E4A016841F4C8
:100D0000807101608168114081600B4A0168114067
:100D10000160016821F480210160816821F47D0176
:100D200081600021C1604FF0006004490860704795
:100D3000003802400CC0FF88FEFFFEEE08ED00E028
:100D400010B5074979441831064C7C44163404E048
:100D50000A68081D511888470146A142F8D110BD04
:100D600008000000280000003BFFFFFF0800000013
:100D70002C00002000000000F3FDFFFF2C0000000D
:100D800050010000000000200000000000F00BF8FF
:100D9000002801D0FFF7D4FF0020C046C046FFF76F
:100DA000FBFE00F002F80120704700F001B80000DF
:100DB0000746384600F002F8FBE7000080B5C04661
:100DC000C046024A11001820ABBEFBE72600020015
:100DD0007047FEE7FEE7FEE7FEE7704770477047A3
:100DE000FFF7CFBC0148804701480047F90C0008D5
:100DF000F50D0008C046C046C046C046FFF7C6FF16
:100E0000FFF7FEBFFFF7FEBFFFF7FEBFFFF7FEBF16
:100E1000FFF7FEBFFFF7FEBFFFF7FEBFFFF7FEBF06
:100E2000FFF7FEBFFFF7FEBFFFF7FEBFFFF7FEBFF6
:100E3000FFF7FEBFFFF7FEBFFFF7FEBFFFF7FEBFE6
:100E4000FFF7FEBFFFF7FEBFFFF7FEBFFFF7FEBFD6
:100E5000FFF7FEBFFFF7FEBFFFF7FEBFFFF7FEBFC6
:100E6000FFF7FEBFFFF7FEBFFFF7FEBFFFF7FEBFB6
:100E7000FFF7FEBFFFF7FEBFFFF7FEBFFFF7FEBFA6
:100E8000FFF7FEBFFFF7FEBFFFF7FEBFFFF7FEBF96
:100E9000FFF7FEBFFFF7FEBFFFF7FEBFFFF7FEBF86
:100EA000FFF7FEBFFFF7FEBFFFF7FEBFFFF7FEBF76
:100EB000FFF7FEBFFFF7FEBFFFF7FEBFFFF7FEBF66
:100EC000FFF7FEBFFFF7FEBFFFF7FEBFFFF7FEBF56
:100ED000030406080C101820300000000000000079
:100EE0000000000001020304060708090048E801A9
:0C0EF00000080240000802400000024020
:0400000508000DF5ED
:00000001FF
